{
  "contractName": "ERC165",
  "abi": [
    {
      "inputs": [],
      "payable": false,
      "stateMutability": "nonpayable",
      "type": "constructor"
    },
    {
      "constant": true,
      "inputs": [
        {
          "name": "interfaceId",
          "type": "bytes4"
        }
      ],
      "name": "supportsInterface",
      "outputs": [
        {
          "name": "",
          "type": "bool"
        }
      ],
      "payable": false,
      "stateMutability": "view",
      "type": "function"
    }
  ],
  "bytecode": "0x608060405234801561001057600080fd5b5061004c6301ffc9a77c010000000000000000000000000000000000000000000000000000000002610051640100000000026401000000009004565b61010e565b63ffffffff7c010000000000000000000000000000000000000000000000000000000002817bffffffffffffffffffffffffffffffffffffffffffffffffffffffff1916141515156100a257600080fd5b6001600080837bffffffffffffffffffffffffffffffffffffffffffffffffffffffff19167bffffffffffffffffffffffffffffffffffffffffffffffffffffffff1916815260200190815260200160002060006101000a81548160ff02191690831515021790555050565b61013d8061011d6000396000f300608060405260043610610041576000357c0100000000000000000000000000000000000000000000000000000000900463ffffffff16806301ffc9a714610046575b600080fd5b34801561005257600080fd5b5061009060048036038101908080357bffffffffffffffffffffffffffffffffffffffffffffffffffffffff191690602001909291905050506100aa565b604051808215151515815260200191505060405180910390f35b6000806000837bffffffffffffffffffffffffffffffffffffffffffffffffffffffff19167bffffffffffffffffffffffffffffffffffffffffffffffffffffffff1916815260200190815260200160002060009054906101000a900460ff1690509190505600a165627a7a7230582090a45b694a5965a2b8dfe80c572e6a8c0e9d59ff5da7eb8178b6e0444598bf340029",
  "source": "pragma solidity ^0.4.24;\n\nimport \"./IERC165.sol\";\n\n\n/**\n * @title ERC165\n * @author Matt Condon (@shrugs)\n * @dev Implements ERC165 using a lookup table.\n */\ncontract ERC165 is IERC165 {\n\n  bytes4 private constant _InterfaceId_ERC165 = 0x01ffc9a7;\n  /**\n   * 0x01ffc9a7 ===\n   *   bytes4(keccak256('supportsInterface(bytes4)'))\n   */\n\n  /**\n   * @dev a mapping of interface id to whether or not it's supported\n   */\n  mapping(bytes4 => bool) internal _supportedInterfaces;\n\n  /**\n   * @dev A contract implementing SupportsInterfaceWithLookup\n   * implement ERC165 itself\n   */\n  constructor()\n    public\n  {\n    _registerInterface(_InterfaceId_ERC165);\n  }\n\n  /**\n   * @dev implement supportsInterface(bytes4) using a lookup table\n   */\n  function supportsInterface(bytes4 interfaceId)\n    external\n    view\n    returns (bool)\n  {\n    return _supportedInterfaces[interfaceId];\n  }\n\n  /**\n   * @dev private method for registering an interface\n   */\n  function _registerInterface(bytes4 interfaceId)\n    internal\n  {\n    require(interfaceId != 0xffffffff);\n    _supportedInterfaces[interfaceId] = true;\n  }\n}\n",
  "sourcePath": "openzeppelin-solidity/contracts/introspection/ERC165.sol",
  "compiler": {
    "name": "solc",
    "version": "0.4.24+commit.e67f0147.Emscripten.clang"
  },
  "schemaVersion": "2.0.1",
  "updatedAt": "2018-10-23T22:54:39.991Z"
}